:400000000010002011000000BD190000BD19000010B501F0DBFCC04670B5134C23688022D20213432360182001F064FD22680F4B134023600E4A0F4B1A6010220E4B1A606D
:40004000802212060D4B1A60002525600C4A0D4B1A600D49092001F019FD092001F0FAFC0A4B1D6070BDC04600010B40FFFFFBFF0600008004010B400802024008010B40CD
:400080000100008000000240051D00000C020B4010B572B600240FE01C486200131959000B00411889881A5AC31858880004104301F07EFC0134E4B2012CEDD9EE2212026F
:4000C000134B1A60134A144B1A6099231B04134A1360134A1360134A117806230B43DBB213700523104A13601049114A1160D8210901104A1160104A1360C72149000F4ACB
:4001000011600F4A1360FFF787FF10BD642700000C000140FF0F00001000014000500F4030500F4000700F4000000440B26D0000080004400803044000040440080404403F
:400140001804044010B5064C2378002B07D1054B002B02D0044800E000BF0123237010BD5801002000000000C0260000084B10B5002B03D00749084800E000BF0748036840
:40018000002B00D110BD064B002BFBD09847F9E7000000005C010020C0260000C00000200000000010B501F00BFF01F009FF002010BDC04610B501F02FF91F2318400A30CF
:4001C00001F000FA10BDC04610B502F011F810BD10B58AB001F0EAFE402318400400631E9C41E4B2002806D101F094FE03231840012800D00124002C13D001F0C1FF040047
:40020000431EDBB21F2B03D901F0DAFE1B2021E001006B46981D01F099FE01AB5C70012300E00023002B13D001A842780023222100F0E4FA041E0DD0042804D10648FFF72E
:40024000C3FF200006E00548FFF7BEFF200001E00A20FFE70AB010BDF02600000C27000010B5FFF79FFF04000321002001F0C8FE200010BD30B58DB02221684600F08AFA09
:40028000002825D16B461D7804242C4003D0FFF7E7FF07241DE001F02BFE0321002001F0AFFE09AB6A460A921D7022225A706A4602320B92084B9B78002B03D0012109A820
:4002C00000F05EFB0B980A9B597801F033FE00E0092420000DB030BD7401002010B54C4B5A78062A00D992E093004A4AD3589F4601F0FEFD0122464B5A70F0E703210020A9
:4003000001F07EFE01F0EEFD0522414B5A70E6E701F04AFE3E4B1B78002B08D101F0FAFD03231840012802D00122394B1A70384B1B78002B23D00022354B1A70FFF748FFA2
:4003400004001B2803D10122314B5A705FE001F0E1FD0A2C07D1C30705D401F031FE01222B4B5A70BBE703231840012803D00122274B1A70B3E70122254B5A70AFE70622C7
:40038000234B5A70ABE7FFF775FF002806D101F043F81F4B586003225A70A0E7072803D107221B4B5A7032E00522194B5A702EE001F0FAFD164B1B78002B12D00022144B0B
:4003C0001A7001F0F3FDC30607D501F0F9FD04220F4B5A70FFF7EEFE81E701220C4B5A707DE701F019F80A4B5B68C01AFA239B004343094A93420AD90422054B5A7006E067
:400400000648FFF7E1FE0122014B5A7067E710BD74010020C4260000271103002427000010B5034B187201F001FD002010BDC0467401002070B501F09FFD2621062001F01C
:40044000DFFD03211D2001F0DBFD002001F03EFD012001F03BFD022001F038FD032001F035FD042001F032FD052001F02FFD1F4C207AFFF7D5FF032001F0E6FC1C4D052178
:40048000280001F0EBFC28000830052101F0F6FCF22001F003FDF32001F006FDF42001F009FDF52001F00CFD3721002001F0A8FD01F05CFD3F21012001F0A2FD2F210420D2
:4004C00001F09EFD0321002001F09AFDFFF76AFE01F008FD0023637023001833236122236373230019336361002070BD74010020E026000010B5FFF7F1FE002414E00C481C
:400500000C3000F02DFA002810D1094B9B78002B04D0002106480C3000F032FA04480C3000F026FA0134E4B2092CE8D9002010BD74010020024B00229A701A727047C04695
:4005400074010020F0B5474680B486B002900391049205930C9E0D9F0E9C002C13D0002398460BE001970096059B049A03990298A847002801D01B23984604342568002D63
:40058000F0D1404600E01B2006B004BC9046F0BD30B587B017246C4400252570094D2D6802950A9D01950094FFF7CCFF2378002B02D0002802D102E01B2000E01B2007B089
:4005C00030BDC046B001002010B582B043689C79D9791A0008321B7900902000FFF7D8FF02B010BD30B583B01D0006AB1B7807AC24788571C2710232D2B2009400F03EF9E6
:4006000003B030BDF0B58FB004000F0003921E0014AB1D782222002105A802F048F81A2F13D8002306E01A000832207805A9885401340133BB42F6DB01950096039B3A00EA
:40064000222105A8FFF7CEFF00E004200FB0F0BD014B186000207047B001002010B500F001F910BD7047C04610B5034800F000F90022024B1A6010BDC9050000B001002064
:4006800070B59C0702D58124847001E001248470054D2C786C70661C2E70C4700232D2B200F06AF970BDC046B401002010B500F00FF910BD10B50B00022249688A704268FC
:4006C000D2785968CA70597858680023042200F053F910BD80787047C378034A5078181A43425841C0B27047B401002010B500F027F910BD024B00221A705A707047C04663
:40070000B401002070B582B006AC257807AC267808AC2478202A34D8222934D1002D02D01B494D6801E01A490D6804704270002B14D0002E06D0002301AA0100280000F006
:40074000FFFB05E0012301AA0100280000F0F8FB012801D1002019E0082017E0002E06D00023C8220100280000F068FB05E00123C8220100280000F061FB012805D1002078
:4007800004E0042002E01B2000E0082002B070BDB801002010B521290AD9074B5B6800220100180000F01AFC012803D1002002E0042000E00A2010BDB801002010B521292A
:4007C0000AD9074B1B6800220100180000F006FC012803D1002002E0042000E00A2010BDB801002000B585B002930123019300930023FFF787FF05B000BDC04600B585B076
:4008000002930123019300230093FFF77BFF05B000BDC04610B500222221062000F0F4FA0A4B1860002800D1FEE7094900F048FC00222221062000F0E7FA044B58600028E3
:4008400000D1FEE7034900F03BFC10BDB80100203427000040270000014B18787047C046C4000020014B187000207047C4000020014B186000207047C0010020F0B583B087
:400880000600019114001D0008AB1F78FFF7E4FF307175710234E2B23B0001993000FFF7EFFE03B0F0BDC04610B58CB000236A46137003AB019322226C4662704268127917
:4008C00019715A716946FFF7F5FE0CB010BDC04670B5050046687479FF2C03D0FFF7BCFF844225D169783000FFF7F4FE040083070BD569786868FFF7EFFE002805D02A78B2
:40090000012313432B70002017E0E30712D50B4B1B68002B10D0230605D5FFF79DFF01002800FFF7C1FF054B1B682800984704E01B2002E0122000E01B2070BDC00100202C
:4009400010B5FFF78FFE10BDFF22034B1A700022024B1A607047C046C4000020C001002010B50023037041784068FFF727FF10BD10B5FFF79BFE10BD10B5FFF733FF10BD7E
:4009800010B5FFF7B3FE10BD7047C04610B5FFF7D1FDFFF73FFFFFF7F7FFFFF7ABFEFFF7D3FFFFF761FE10BD82B00023019372B6019B002BFCD002B07047C04600000000FC
:4009C0000B4A13681868203080F30988022080F31488BFF36F8F3FBCAE4608BC04BC62B61847C046C046C046C046C046C046C0469C020020054B00221A6005490A600549AE
:400A0000054A116007221A607047C04610E000E018E000E0BF5D000014E000E010B5031F802464041C60043B1960043B02491960143B1A60403810BDA90900007047C04657
:400A400010B50C4B1A68FF2109040A431A601A68FF2109060A431A60FFF7CCFF0022064B1A60FFF7ADFF00F0BFFDFFF79DFF002010BDC04620ED00E0C8000020802252051D
:400A8000034B1A60BFF34F8FBFF36F8F7047C04604ED00E072B6044A136801331360BFF34F8FBFF36F8F7047C8000020034A1368013B1360002B00D162B67047C8000020FF
:400AC000EFF3108072B6704780F310887047C046EFF309800E4B1A6820381060F0C044464D4656465F46F0C008B572B600F07CFD62B60CBC116808681030F0C8A046A9462D
:400B0000B246BB4680F309882038F0C81847C0469C02002010B5FFF7D3FF040000F082FC002803D080225205024B1A602000FFF7CBFF10BD04ED00E0030008334360012249
:400B400052428260C3600361002303607047C046002303617047C04643684B609A688A609A68516099600861036801330360704730B50C68631C01D1026907E002000832A9
:400B800000E01A0053681D68AC42FAD253684B6099608A605160086103680133036030BD03694268816891608268416851605A68904201D182685A60002202611A68013A6F
:400BC0001A6018687047C04610B50400FFF762FFA26BE36B9A4201D1012400E00024FFF765FF200010BDC04610B50400FFF752FFA36B002B01D1012400E00024FFF756FF10
:400C0000200010BD70B504001600856B026C002A08D10368002B2CD1406800F0BFFD002363602DE0002E0ED1806801F037FDA368226C94466344A360626893421BD32368FE
:400C4000A36000201CE0C06801F028FD236C5B42E268D218E26021688A4203D2626894466344E360022E08D1002D08D0013D002006E0002004E0002002E0002000E0002045
:400C80000135A56370BDC04670B582B00190846CA36BE26B934219D24523E55C6DB20A0001A92000FFF7AEFF06006B1C09D1636A002B0ED02000243000F0FEFC002807D1F6
:400CC00007E001356DB24523E55402E0002600E00126300002B070BD10B50C00026C002A0BD0C3689B18C36041688B4201D30368C360C168200001F0D1FC10BD70B50500DE
:400D0000FFF7C8FE4523EC5C64B218E0AB6C002B08D000212800FFF7B7FF00280DD000F037FD0AE06B6A002B0BD02800243000F0C3FC002801D000F02BFD013C64B2002C81
:400D4000E4DCFF224523EA54FFF7B0FEFFF7A2FE4423EC5C64B20CE02B69002B0BD02800103000F0A9FC002801D000F011FD013C64B2002CF0DCFF224423EA54FFF796FED8
:400D800070BDC04670B504000D00FFF783FE2268E36B206C01005943511861600021A163A260013B4343D318E360FF234422A3540132A354002D0BD12369002B10D02000A8
:400DC000103000F079FC00280AD0FFF757FE07E020001030FFF7B0FE20002430FFF7ACFEFFF764FE012070BD10B5029C002901D1246000E02260E063216401212000FFF718
:400E0000C1FF0023A36410BDF0B583B005000F001600002901D0484300E000204C3000F0EDFC041E07D002004C320090330039002800FFF7D9FF200003B0F0BDF0B585B05A
:400E400004000D0001921F000026FFF723FEA36BE26B934201D3022F24D13A0029002000FFF7D0FEA36C002B08D039002000FFF70BFF002812D0FFF701FE0FE0636A002BB0
:400E800008D02000243000F017FC002806D0FFF7F5FD03E0002801D0FFF7F0FDFFF706FE01204AE0019B002B03D1FFF7FFFD002043E0002E03D102A800F038FC0136FFF72C
:400EC000F5FD00F0A1FAFFF7E5FD4423E35C5BB2013302D100224423E2544523E35C5BB2013302D100224523E254FFF7DFFD01A902A800F023FC002819D12000FFF764FEEA
:400F000000280ED020001030019900F0C7FB2000FFF7F4FE00F0F2FA002896D1FFF7AEFD93E72000FFF7EAFE00F0E8FA8DE72000FFF7E4FE00F0E2FA002005B0F0BDC046E1
:400F4000F0B583B00600019117001C00FFF7B8FD0090B36BF26B934201D3022C2DD14523F35C5DB2220001993000FFF74BFE6B1C1DD1B36C002B0BD021003000FFF784FEEF
:400F800000281CD0002F1CD001233B6001241FE0736A002B17D03000243000F08DFB002813D0002F13D001233B60012410E06B1C5BB24522B35401240AE0002408E0012401
:400FC00006E0012404E0012402E0012400E001240098FFF779FD200003B0F0BDF0B585B004000D0001920027FFF754FDA66B002E14D029002000FFF76FFE013EA6632369BE
:40100000002B07D02000103000F056FB002801D0FFF734FDFFF74AFD01204FE0019B002B03D1FFF743FD002048E0002F03D102A800F07CFB0137FFF739FD00F0E5F9FFF70B
:4010400029FD4423E35C5BB2013302D100224423E2544523E35C5BB2013302D100224523E254FFF723FD01A902A800F067FB002819D12000FFF7B8FD00280ED02000243043
:40108000019900F00BFB2000FFF738FE00F036FA0028A9D1FFF7F2FCA6E72000FFF72EFE00F02CFAA0E72000FFF728FE00F026FA2000FFF799FD002896D0002005B0F0BD3A
:4010C00010B500230AE0DA00064C1259002A04D1DB001951E318586002E00133092BF2D910BDC046FC0600200A4B9B6A1B68002B01D1013300E00023002B04D001225242BF
:40110000044BDA6205E0034B9A6AD268D2685268DA627047C401002010B50400006B00F09FFB200000F09CFB10BDC046F0B583B000900D0017000193089C0A9E9200A521EB
:40114000306B01F0B4FA234BFB189B00326B94466344072293431F00002308E0E9180878F218343210700A78002A02D001330F2BF4D900224323F254042C00D90424F46253
:4011800074640023B364301DFFF7E2FC30001830FFF7DEFC366105231C1BB4617662002206E0130012339B00F318002159600132042AF6D9002333666422B354019A009944
:4011C0003800FFF72BFC3060099B002B00D01E6003B0F0BDFFFFFF3FF8B5002408E0A2001219930010483030C018FFF7A5FC0134042CF4D90D4C270014373800FFF79CFC4E
:40120000260028363000FFF797FC074D28001430FFF792FC20003C30FFF78EFC2800FFF78BFCAF622665F8BDC40100204402002010B50400FFF72EFC1E4B5A6D01325A65D5
:401240009B6D002B07D11B4B9C655B6D012B0ED1FFF7C2FF0BE0174BDB6D002B07D1154B9B6DDB6AE26A934201D8124B9C65114A136E01331366E36A526E934201D90D4A39
:401280005366211D9A00D3189A000B4830308018FFF762FCFFF70AFC064BDB6D002B07D0044B9B6DDA6AE36A9A4201D2FFF7E6FB10BDC04644020020C401002070B512E03F
:4012C000FFF7E8FB0A4CA36CDD68281DFFF768FC636D013B6365A36E013BA366FFF7E6FB2800FFF719FF024B9B6E002BE8D170BD4402002010B5FFF7E1FFFCE770B5040021
:401300000D00154BDE6E986D0430FFF749FC631C08D1002D06D0104B996D04310F48FFF71BFC18E034190C4B9B6D5C60A64206D9094B186D996D0431FFF71AFC0BE0074DA5
:40134000A86A054B996D0431FFF712FCEB6A9C4201D2024BDC6270BD44020020C4010020F0B587B00490059114001F00900000F045FA061E0AD0682000F040FA051E01D027
:40138000066304E0300000F06BFA00E00025002D11D00023039302950D9B01930C9B00933B00220005990498FFF7C0FE2800FFF73FFF012001E00120404207B0F0BDC046CC
:4013C00000B583B00C4B743301930023009332220A490B48FFF7C4FF01280BD172B601225242084BDA62044B0232DA650022DA66FFF726FB03B000BD440200204C27000013
:40140000F5120000C4010020024A136F013313677047C04644020020014BD86E7047C04644020020F8B5324B1B6F002B53D1304BDF6E0137DF66002F09D12E4A916A186D23
:40144000906219659A6F01329A67FFF74DFE294BDB6A9F4203D2002542E0012500E00025244B9B6A1B68002B01D1013300E00023002B04D0012252421E4BDA6230E01D4B9F
:401480009B6ADB68DE6873689F4202D2194AD36226E0341D2000FFF783FBB36A002B03D030001830FFF77CFBF36A114A526E934201D90F4A53669A00D3189A000D4830307E
:4014C00080182100FFF748FBF26A094B9B6DDB6A9A42C2D2C4E7064AD36F0133D3670025054B1B68002B00D001252800F8BDC04644020020C4010020C402002070B5FFF79A
:40150000C9FA2D4B1A6F013A1A671B6F002B4CD1294B5B6D002B26D1002449E0274B1B6ADC6820001830FFF73BFB251D2800FFF737FBE36A204A526E934201D91E4A536606
:401540009A00D3189A001D48303080182900FFF703FB194B9B6DDB6AE26A9A4204D30122174B1A6000E00024144B5B69002BD5D1002C01D0FFF7B8FD0F4BDC6F002C0CD0D6
:40158000FFF750FF002802D001220D4B1A60013C002CF5D10022084BDA67094B1B68002B05D0FFF76BFA012402E0002400E00024FFF77CFA200070BD44020020C4010020AD
:4015C000C402002010B5041E08D0FFF71DFF00212000FFF793FEFFF791FF00E00020002801D1FFF74BFA10BD10B5284B1B6F002B03D00122264B1A6046E00022244B1A60E5
:40160000224B9B6D1B6B234A1968914209D15968914206D19968914203D1DA681D4B9A4205D01A4B986D996D343100F03FF9174B5B6E00E0013B9900C9188A0016498A185D
:40164000126B002AF6D00A009900CC18A0001018446B6468446330321000C9188A0008328218944206D160689900C9188A000A498A1850639900C9188A0007498A18526B07
:40168000D168024A9165536610BDC04644020020C4020020A5A5A5A5C401002010B50C00044B996D1831FFF763FA01212000FFF725FE10BD4402002070B5C368DC68250055
:4016C00018352800FFF76CFA154B1B6F002B14D1251D2800FFF764FAE36A114A526E934201D90F4A53669A00D3189A000D48303080182900FFF730FA04E0290009481430E1
:40170000FFF72AFAE26A064B9B6DDB6A9A4204D90122054B1A60012000E0002070BDC04644020020C4010020C4020020024B9A6F0260DB6E4360704744020020F8B5040008
:401740000D00FFF7A7F9114BD96E6268881A2B685E1C13D00D4EB66F2768B74201D091420ED2984206D21B1A2B602000FFF7DEFF002406E000232B60012402E0002400E013
:401780000124FFF793F92000F8BDC046440200200122014B1A607047C402002070B5041E22D0836C013B8364C26A416C8A421DD0002B1DD1051D2800FFF7F2F9636CE36286
:4017C0000522D21AA2610B4A526E934201D9094A53669A00D3189A000748303080182900FFF7BAF9012004E0002002E0002000E0002070BD44020020C401002070B5040003
:40180000430702D007239C430834FFF7FDFD114B1B68002B05D10F4A13000C3307218B4313600D4B5B68E4180C4A944207D8A34207D2084A1568ED18074B5C6002E000259A
:4018400000E00025FFF75AFE002D01D100F02CF8280070BDC8020020C8060020F70300007047C04610B509490B2000F0FFF808490E2000F0FBF807490F2000F0F7F862B61D
:4018800000F0B4FC00F078FB10BDC0463D0A0000D10A0000150B000010B5FFF7E3FF00F06DF8FFF78DFDFEE772B6FEE772B6FEE710B5FFF7B1FD952803D89623181AFFF7BD
:4018C00081FEFEF7B7FD10BD10B50B4B1B78012B09D0002B03D0DAB2022A0AD00BE00122054B1A70F1E7FFF7E3FF0222024B1A7001E0FEF7FFFD10BDD006002010B584B08F
:4019000000230F226A441370124A1370FF20FEF7A5FE0024FFF7D8FF0134642C16D1002000F080FC553C6C4400230093FF33552201212000FEF766FE237801332370142092
:40194000FFF740FE012000F06DFC00240A20FFF739FEDFE7D006002010B555280BD10123029A1370002000F051FC1420FFF72AFE012000F04BFC002010BDC04600B583B03F
:40198000FFF704F80748FEF763FE002301930093322205490548FFF7E3FC012800D0FEE703B000BD542700005C270000FD18000010B50A00002100F07AFE10BD10B500F047
:4019C00041FE03680C2B00D1FEE7FEE770B50F4E0F4D13E029686B68AC68002202E001C901C30432A242FAD1E868002202E0002102C304328242FAD11035013E002EE9D140
:401A000000F026FEFFF748FFFEE7C04601000000C427000010B500230AE0032B03D89A000949505800E009489900094A885001332F2BF2D9FEF72CFB8022D205116801238F
:401A40000B43136010BDC04600000000BD190000000000201F2318401E3B8340014A13607047C04600E100E001BE704770B504000D000F2802D90020FFF7F6FFA4008023DA
:401A80009B059C4664442068256070BD70B504000D001F2802D90020FFF7E6FF1034A40080239B059C4664442068256070BDC04610B5040006E0084B586800F0C1FB074BBA
:401AC0009C46644480231B029C42F4D8024B9868604300F0B5FB10BDCC0000200080FFFF10B5034B1B7B584300F0AAFB10BDC046CC000020F0B557464E46C0B483B0040012
:401B000000F0A8FB0190E71E2D2F74D83F4B1B78DBB29C4208D83E4B1B78DBB29A463D4B1B78DBB2994631E03B4B1B78DBB29C4208D83A4B1B78DBB29A46394B1B78DBB2BE
:401B4000994623E0374B1B78DBB29C4208D8364B1B78DBB29A46354B1B78DBB2994615E0334B1B78DBB29C4208D8324B1B78DBB29A46314B1B78DBB2994607E02F4B1B78E6
:401B8000DBB29A462E4B1B78DBB299462D4BDE5D2F2E09D92A2C07D919222B4B1A60052000F04EFB192503E0274B1D683F231D40B54206D9234BDA5D234B1A60052000F040
:401BC0003FFB1F4B9C4664442378DBB21F4A13601F4B52461A601F4B4A461A600520FFF77FFFB5420AD2174BDA5D174B1A60052000F026FB02E00020FFF736FF019800F0F6
:401C00002DFB03B00CBC91469A46F0BDC0F1FF0FC1F1FF0FC2F1FF0FC3F1FF0FC4F1FF0FC5F1FF0FC6F1FF0FC7F1FF0FC8F1FF0FC9F1FF0FCAF1FF0FCBF1FF0FCCF1FF0F9C
:401C4000CDF1FF0F702700002CFF0B4028FF0B401CFF0B4020FF0B40034B1868C0231B02184000D00120704700010B4010B500F0F1FA044A1368C02109020B43136000F029
:401C8000EDFA10BD00010B4010B500F0E3FA08490A68084B1A408024E40122430A600A6813408022120213430B6000F0D7FA10BD00010B40FF3FFFFF70B5050000F0CAFA9A
:401CC0000400FFF7C9FF002803D0FFF7DDFF012100E0002108482840084A1568084B2B40184310601368012901D1FFF7BFFF200000F0B4FA70BDC0460404040010020B409D
:401D0000FBFBFBFF10B5244B1B685B0715D5234B1B685B070ED5224BD969042001401F4C22688A432260DA698243DA611B69002B00D098470420FFF7BFFF174B1B685B0564
:401D400018D5164B1B685B0510D5154BD9698022D2001140114802688A430260D969114A0A40DA615B69002B00D098478020C000FFF7A2FF084B1B685B030CD5074B1B6853
:401D80005B0304D5064B9B69002B00D098478020C002FFF791FF10BD10020B40E0000020D4060020FFFBFFFF022807D0032809D001280AD10322054B1A7006E00422034B57
:401DC0001A7002E00522014B1A707047E400002010B50121012000F013F90121022000F00FF90321032000F00BF90321042000F007F90221052000F003F92621062000F07B
:401E0000FFF800211C2000F0FBF800211D2000F0F7F80021112000F0F3F80A21002000F0EFF80320FFF7C0FF10BDC04610B501007D2800D97D21052000F0E2F800F052F928
:401E400000F056F910BDC04610B504000100032000F0D6F82000FFF7A7FF10BD10B5002808D0054B1A788A4200D30A0001000A2000F0FEF810BDC046E400002010B50028F7
:401E800008D0054B1A788A4200D30A0001000B2000F0EEF810BDC046E400002010B501000C2000F0ADF810BD10B501000D2000F0A7F810BD10B501000E2000F0A1F810BDF9
:401EC00010B501000F2000F09BF810BD10B504000100012000F0EAF821001C2000F0E6F810BDC04610B5012000F014FB10BDC04610B5002000F00EFB10BDC04610B5012093
:401F000000F008FB0F20FFF7EBFD002000F002FB10BDC04610B5172000F056F810BDC04610B5002804D0202900D9202100F00EF910BDC04610B5002806D0202900D92021A0
:401F4000FFF7EEFFFFF7DAFF10BDC04670B504000D00002809D0002000F0DCFA2900200000F0CCF8012000F0D5FA70BD10B57021072000F045F810BD10B56420FFF798FD6A
:401F800000F0FCF9002000F0C5FA012000F0B6FA00F0A8F800F0ACF8FFF7E8FFFFF718FF9620FFF79DFD10BD7047C04610B500F007F904007021072000F022F8200010BD66
:401FC00010B500F08FF810BD10B5040000F0F4F900F01CFA002000F091FA200000F0FCF9FF2000F0F9F900F0DFF90228FBD1013800F084FA00F0D2F900F0D0F9C0B210BD73
:4020000070B505000C0000F0D7F900F0FFF9002000F074FA20202843C0B200F0DDF9200000F0DAF900F0C0F90228FBD1013800F065FA70BD70B504000D001600FFF7C4FF25
:4020400003002B41DB0702D5002E02D00FE0002E0DD0002E04D00121A9400843C1B203E00123AB409843C1B22000FFF7C9FF70BD70B506000D00140000F09EF900F0C6F9A6
:40208000002000F03BFA20203043C0B200F0A4F92100280000F0AEF900F086F9631C9842FAD1012000F02AFA70BDC04610B5082902D80122FFF7BEFF10BDC04610B504000C
:4020C00000F07AF900F0A2F9002000F017FA200000F082F900F068F90128FBD100F00EFA10BDC04610B5E220FFF7E8FF10BDC04610B5E120FFF7E2FF10BDC046F8B507009A
:402100000E0000F059F900F081F9002000F0F6F9612000F061F900F047F90028FBD000F03DF900240BE0FF2000F056F900F03CF90028FBD03D1900F031F928700134B4421A
:40214000F1D3012000F0DAF9F8BDC04670B505000C0000F031F900F059F9002000F0CEF9A02000F039F92100280000F043F900F01BF9631C9842FAD1012000F0BFF970BD1E
:4021800010B500F019F900F041F9002000F0B6F9602000F021F9FF2000F01EF900F004F90228FBD1013800F0A9F900F0F7F800F0F5F8C4B2202C01D9FFF794FF200010BD43
:4021C00010B500F0F9F800F021F9002000F096F9FF2000F001F900F0E7F80128FBD100F08DF900F0DBF8C0B210BDC0467047C04670B505000078012404E000F041F8285D2F
:402200000134E4B20028F8D170BDC04604490A68D2B208239A43C00018401043086070470000044004490A68D2B210239A4300011840104308607047000004400000000034
:402240000230800804D0C0460138FDD1C046C046C0467047EFF3108072B6704780F310887047C04600000000000000000000000000000000000000000000000000000000E1
:40228000FEB5494652465B460EB407462E4909688A462E4A12682E48022100F047F903002A480068C0182A4900F040F906001F3EB346234A126801219140C9430C0001255C
:4022C0000026FFF7C7FF814651460B6823400B6058460430FFF7B4FF3800F040284090400B68234003430B605846FFF7A9FF0136072EF1D900200130012090400B68234031
:4023000003430B6058460630FFF79AFF4846FFF7A5FFC046C046C0460EBC894692469B46FEBDC046C046C046C046C046C046C046C046C046C046C046C046C046C046C046E8
:40234000EC000020F4060020E8000020DC00002000C2010010B500F069F810BD10B500F087F810BD10B5044A1368802109060B431360FFF7EFFF10BD0000064010B5064B80
:402380001B78002B04D1FFF7E9FF0122024B1A70FFF7E8FF10BDC046F8060020014B18687047C04640030640024B1B680F2018407047C04608030640054B1A6880214902AF
:4023C0000A431A601968034A0A401A607047C04604030640FFFFFEFF044B1B680F221340082BF9D0024B18607047C046080206404002064070B506000D00002403E0305D07
:40240000FFF7EAFF0134AC42F9D370BD054B1A68802149020A431A601968034A0A401A607047C04604020640FFFFFEFF054A1368F02109010B431360034B1A88034B1A6028
:402440007047C04610000140FA060020880F064005490A68054B1A408006C0231B051840104308607047C04620000640FFFFFFF310B5124A124B1A60124A134B1A60134BAE
:40248000134A13600721134A1160134A13600023124A1360124A1360124A1360124A1360124A1360124A1360124A13601268124B1A800020FFF7CCFF10BDC0460F00000185
:4024C0000000064001000080200006400701008000030640040306400002064004020640880E0640C80E0640480F0640080F0640C80F0640880F0640FA060020044A136828
:40250000DBB201218B430840184310607047C0460000044004490A68D2B202239A434000184010430860704700000440002243088B4274D303098B425FD3030A8B4244D3FA
:40254000030B8B4228D3030C8B420DD3FF22090212BA030C8B4202D31212090265D0030B8B4219D300E0090AC30B8B4201D3CB03C01A5241830B8B4201D38B03C01A52412E
:40258000430B8B4201D34B03C01A5241030B8B4201D30B03C01A5241C30A8B4201D3CB02C01A5241830A8B4201D38B02C01A5241430A8B4201D34B02C01A5241030A8B42F5
:4025C00001D30B02C01A5241CDD2C3098B4201D3CB01C01A524183098B4201D38B01C01A524143098B4201D34B01C01A524103098B4201D30B01C01A5241C3088B4201D3EA
:40260000CB00C01A524183088B4201D38B00C01A524143088B4201D34B00C01A5241411A00D20146524110467047FFE701B5002000F006F802BDC0460029F7D076E7704713
:402640007047C046014B18687047C046500100200E4B70B500251E000D4CE41AA410A54204D0AB00F35898470135F8E700F098F8084B00251E00084CE41AA410A54204D05B
:40268000AB00F35898470135F8E770BDAC270000AC270000AC270000B4270000002310B59A4203D0CC5CC4540133F9E710BD03008218934202D019700133FAE7704700005E
:4026C00000000000F0020000FC0200000E040000B00300000004000010030000860300001122334455000000B3B4B5B6F10000004552523A205278207175657565206F766C
:402700006572666C6F77210D0A0000004552523A2052782051756575652066756C6C3F0D0A0000004552523A2054696D656F75740D0A0000526164696F52784D7367000056
:40274000526164696F54784D7367000049444C45000000005919000000000000524E65740000000000300F40000400400F400004030405060708090A0B0C0E0F10111213AA
:402780001415161718191B1C1D1E1F2021222325262728292A2B2E2F3031323334354300F8B5C046F8BC08BC9E4670476D010000151A0000F8B5C046F8BC08BC9E4670476B
:4027C00045010000D8270000C000002098000000F80500000000000000000000FF000000AAAAAAAA010000000000E02EC05D00001800000000366E0104040400050000007E
:40280000000004400200000000000000000000000000000000000000000000000000000000000000000000009E27000000000000000000000000000000000000000000008D
:4028400000000000000000000000000000000000000000000000000000000000000000000000000000000000F0000020000000000000000000000000000000000000000048
:402880000000000000000000000000000000000000000000000000000000000000000000000000000000000000000000000000000000000000000000000000000000000018
:4028C00000000000000000000000000000000000000000000000000000000000000000000000000000000000000000000000000000000000000000000000000000000000D8
:402900000000000000000000000000000000000000000000000000000000000000000000000000000000000000000000000000000000000000000000000000000000000097
:402940000000000000000000000000000000000000000000000000000000000000000000000000000000000000000000000000000000000000000000000000000000000057
:0200000490303A
:02000000EA23F1
:0200000490402A
:200000000000000000000000000000000000000000000000000000000000000000000000E0
:0200000490501A
:0C000000000204C81193110104D6FBB6E5
:0200000490600A
:0100000001FE
:00000001FF